{
  "_format": "hh-sol-artifact-1",
  "contractName": "Heartly",
  "sourceName": "contracts/Heartly.sol",
  "abi": [
    {
      "inputs": [
        {
          "internalType": "address",
          "name": "_usdcAddress",
          "type": "address"
        }
      ],
      "stateMutability": "nonpayable",
      "type": "constructor"
    },
    {
      "inputs": [
        {
          "internalType": "address",
          "name": "owner",
          "type": "address"
        }
      ],
      "name": "OwnableInvalidOwner",
      "type": "error"
    },
    {
      "inputs": [
        {
          "internalType": "address",
          "name": "account",
          "type": "address"
        }
      ],
      "name": "OwnableUnauthorizedAccount",
      "type": "error"
    },
    {
      "inputs": [],
      "name": "ReentrancyGuardReentrantCall",
      "type": "error"
    },
    {
      "anonymous": false,
      "inputs": [
        {
          "indexed": true,
          "internalType": "address",
          "name": "user",
          "type": "address"
        },
        {
          "indexed": false,
          "internalType": "uint256",
          "name": "amount",
          "type": "uint256"
        }
      ],
      "name": "BalanceWithdrawn",
      "type": "event"
    },
    {
      "anonymous": false,
      "inputs": [
        {
          "indexed": true,
          "internalType": "bytes32",
          "name": "callId",
          "type": "bytes32"
        }
      ],
      "name": "CallCancelled",
      "type": "event"
    },
    {
      "anonymous": false,
      "inputs": [
        {
          "indexed": true,
          "internalType": "bytes32",
          "name": "callId",
          "type": "bytes32"
        },
        {
          "indexed": true,
          "internalType": "address",
          "name": "user",
          "type": "address"
        },
        {
          "indexed": true,
          "internalType": "address",
          "name": "expert",
          "type": "address"
        },
        {
          "indexed": false,
          "internalType": "uint256",
          "name": "duration",
          "type": "uint256"
        },
        {
          "indexed": false,
          "internalType": "uint256",
          "name": "amount",
          "type": "uint256"
        },
        {
          "indexed": false,
          "internalType": "uint256",
          "name": "rating",
          "type": "uint256"
        },
        {
          "indexed": false,
          "internalType": "bool",
          "name": "flag",
          "type": "bool"
        }
      ],
      "name": "CallEnded",
      "type": "event"
    },
    {
      "anonymous": false,
      "inputs": [
        {
          "indexed": true,
          "internalType": "bytes32",
          "name": "callId",
          "type": "bytes32"
        }
      ],
      "name": "CallHold",
      "type": "event"
    },
    {
      "anonymous": false,
      "inputs": [
        {
          "indexed": true,
          "internalType": "bytes32",
          "name": "callId",
          "type": "bytes32"
        },
        {
          "indexed": true,
          "internalType": "address",
          "name": "user",
          "type": "address"
        },
        {
          "indexed": true,
          "internalType": "address",
          "name": "expert",
          "type": "address"
        },
        {
          "indexed": false,
          "internalType": "enum Heartly.CallType",
          "name": "callType",
          "type": "uint8"
        },
        {
          "indexed": false,
          "internalType": "uint256",
          "name": "stakedAmount",
          "type": "uint256"
        }
      ],
      "name": "CallScheduled",
      "type": "event"
    },
    {
      "anonymous": false,
      "inputs": [
        {
          "indexed": true,
          "internalType": "bytes32",
          "name": "callId",
          "type": "bytes32"
        },
        {
          "indexed": true,
          "internalType": "address",
          "name": "user",
          "type": "address"
        },
        {
          "indexed": true,
          "internalType": "address",
          "name": "expert",
          "type": "address"
        },
        {
          "indexed": false,
          "internalType": "uint256",
          "name": "startTime",
          "type": "uint256"
        }
      ],
      "name": "CallStarted",
      "type": "event"
    },
    {
      "anonymous": false,
      "inputs": [
        {
          "indexed": true,
          "internalType": "address",
          "name": "user",
          "type": "address"
        },
        {
          "indexed": false,
          "internalType": "uint256",
          "name": "amount",
          "type": "uint256"
        }
      ],
      "name": "Deposited",
      "type": "event"
    },
    {
      "anonymous": false,
      "inputs": [
        {
          "indexed": true,
          "internalType": "address",
          "name": "user",
          "type": "address"
        },
        {
          "indexed": false,
          "internalType": "uint256",
          "name": "amount",
          "type": "uint256"
        }
      ],
      "name": "ExpertBalanceWithdrawn",
      "type": "event"
    },
    {
      "anonymous": false,
      "inputs": [
        {
          "indexed": true,
          "internalType": "address",
          "name": "expert",
          "type": "address"
        },
        {
          "indexed": false,
          "internalType": "string",
          "name": "name",
          "type": "string"
        },
        {
          "indexed": false,
          "internalType": "uint256",
          "name": "voiceRate",
          "type": "uint256"
        },
        {
          "indexed": false,
          "internalType": "uint256",
          "name": "videoRate",
          "type": "uint256"
        },
        {
          "indexed": false,
          "internalType": "string",
          "name": "cid",
          "type": "string"
        },
        {
          "indexed": false,
          "internalType": "string",
          "name": "expertise",
          "type": "string"
        }
      ],
      "name": "ExpertRegistered",
      "type": "event"
    },
    {
      "anonymous": false,
      "inputs": [
        {
          "indexed": true,
          "internalType": "address",
          "name": "previousOwner",
          "type": "address"
        },
        {
          "indexed": true,
          "internalType": "address",
          "name": "newOwner",
          "type": "address"
        }
      ],
      "name": "OwnershipTransferred",
      "type": "event"
    },
    {
      "anonymous": false,
      "inputs": [
        {
          "indexed": true,
          "internalType": "address",
          "name": "user",
          "type": "address"
        },
        {
          "indexed": false,
          "internalType": "uint256",
          "name": "amount",
          "type": "uint256"
        }
      ],
      "name": "PlatformBalanceWithdrawn",
      "type": "event"
    },
    {
      "anonymous": false,
      "inputs": [
        {
          "indexed": true,
          "internalType": "address",
          "name": "user",
          "type": "address"
        },
        {
          "indexed": false,
          "internalType": "bool",
          "name": "isVoice",
          "type": "bool"
        },
        {
          "indexed": false,
          "internalType": "uint256",
          "name": "updatedRate",
          "type": "uint256"
        }
      ],
      "name": "updatedExpertrates",
      "type": "event"
    },
    {
      "inputs": [
        {
          "internalType": "bytes32",
          "name": "_callId",
          "type": "bytes32"
        }
      ],
      "name": "callHold",
      "outputs": [],
      "stateMutability": "nonpayable",
      "type": "function"
    },
    {
      "inputs": [
        {
          "internalType": "bytes32",
          "name": "",
          "type": "bytes32"
        }
      ],
      "name": "calls",
      "outputs": [
        {
          "internalType": "bytes32",
          "name": "callId",
          "type": "bytes32"
        },
        {
          "internalType": "address",
          "name": "user",
          "type": "address"
        },
        {
          "internalType": "address",
          "name": "expert",
          "type": "address"
        },
        {
          "internalType": "enum Heartly.CallType",
          "name": "callType",
          "type": "uint8"
        },
        {
          "internalType": "enum Heartly.CallStatus",
          "name": "status",
          "type": "uint8"
        },
        {
          "internalType": "uint256",
          "name": "stakedAmount",
          "type": "uint256"
        },
        {
          "internalType": "uint256",
          "name": "startTime",
          "type": "uint256"
        },
        {
          "internalType": "uint256",
          "name": "endTime",
          "type": "uint256"
        },
        {
          "internalType": "uint256",
          "name": "scheduledAt",
          "type": "uint256"
        },
        {
          "internalType": "uint256",
          "name": "rating",
          "type": "uint256"
        },
        {
          "internalType": "uint256",
          "name": "flagged",
          "type": "uint256"
        }
      ],
      "stateMutability": "view",
      "type": "function"
    },
    {
      "inputs": [
        {
          "internalType": "bytes32",
          "name": "_callId",
          "type": "bytes32"
        }
      ],
      "name": "cancelCall",
      "outputs": [],
      "stateMutability": "nonpayable",
      "type": "function"
    },
    {
      "inputs": [
        {
          "internalType": "uint256",
          "name": "_amount",
          "type": "uint256"
        }
      ],
      "name": "deposit",
      "outputs": [],
      "stateMutability": "nonpayable",
      "type": "function"
    },
    {
      "inputs": [
        {
          "internalType": "bytes32",
          "name": "_callId",
          "type": "bytes32"
        },
        {
          "internalType": "uint256",
          "name": "_rating",
          "type": "uint256"
        },
        {
          "internalType": "bool",
          "name": "flag",
          "type": "bool"
        }
      ],
      "name": "endCall",
      "outputs": [],
      "stateMutability": "nonpayable",
      "type": "function"
    },
    {
      "inputs": [
        {
          "internalType": "address",
          "name": "",
          "type": "address"
        },
        {
          "internalType": "uint256",
          "name": "",
          "type": "uint256"
        }
      ],
      "name": "expertCalls",
      "outputs": [
        {
          "internalType": "bytes32",
          "name": "",
          "type": "bytes32"
        }
      ],
      "stateMutability": "view",
      "type": "function"
    },
    {
      "inputs": [
        {
          "internalType": "uint256",
          "name": "_amount",
          "type": "uint256"
        }
      ],
      "name": "expertWithdrawBalance",
      "outputs": [],
      "stateMutability": "nonpayable",
      "type": "function"
    },
    {
      "inputs": [
        {
          "internalType": "address",
          "name": "",
          "type": "address"
        }
      ],
      "name": "experts",
      "outputs": [
        {
          "internalType": "address payable",
          "name": "walletAddress",
          "type": "address"
        },
        {
          "internalType": "string",
          "name": "name",
          "type": "string"
        },
        {
          "internalType": "string",
          "name": "expertise",
          "type": "string"
        },
        {
          "internalType": "uint256",
          "name": "balance",
          "type": "uint256"
        },
        {
          "internalType": "uint256",
          "name": "voiceRatePerMinute",
          "type": "uint256"
        },
        {
          "internalType": "uint256",
          "name": "videoRatePerMinute",
          "type": "uint256"
        },
        {
          "internalType": "string",
          "name": "cid",
          "type": "string"
        },
        {
          "internalType": "bool",
          "name": "isRegistered",
          "type": "bool"
        }
      ],
      "stateMutability": "view",
      "type": "function"
    },
    {
      "inputs": [
        {
          "internalType": "address",
          "name": "_user",
          "type": "address"
        }
      ],
      "name": "getAvailableBalance",
      "outputs": [
        {
          "internalType": "uint256",
          "name": "",
          "type": "uint256"
        }
      ],
      "stateMutability": "view",
      "type": "function"
    },
    {
      "inputs": [
        {
          "internalType": "bytes32",
          "name": "_callId",
          "type": "bytes32"
        }
      ],
      "name": "getCallDetails",
      "outputs": [
        {
          "internalType": "address",
          "name": "user",
          "type": "address"
        },
        {
          "internalType": "address",
          "name": "expert",
          "type": "address"
        },
        {
          "internalType": "enum Heartly.CallType",
          "name": "callType",
          "type": "uint8"
        },
        {
          "internalType": "enum Heartly.CallStatus",
          "name": "status",
          "type": "uint8"
        },
        {
          "internalType": "uint256",
          "name": "stakedAmount",
          "type": "uint256"
        },
        {
          "internalType": "uint256",
          "name": "startTime",
          "type": "uint256"
        },
        {
          "internalType": "uint256",
          "name": "endTime",
          "type": "uint256"
        }
      ],
      "stateMutability": "view",
      "type": "function"
    },
    {
      "inputs": [
        {
          "internalType": "address",
          "name": "_expert",
          "type": "address"
        }
      ],
      "name": "getExpertCalls",
      "outputs": [
        {
          "internalType": "bytes32[]",
          "name": "",
          "type": "bytes32[]"
        }
      ],
      "stateMutability": "view",
      "type": "function"
    },
    {
      "inputs": [
        {
          "internalType": "address",
          "name": "_expert",
          "type": "address"
        }
      ],
      "name": "getExpertDetails",
      "outputs": [
        {
          "internalType": "string",
          "name": "name",
          "type": "string"
        },
        {
          "internalType": "string",
          "name": "expertise",
          "type": "string"
        },
        {
          "internalType": "uint256",
          "name": "balance",
          "type": "uint256"
        },
        {
          "internalType": "uint256",
          "name": "voiceRatePerMinute",
          "type": "uint256"
        },
        {
          "internalType": "uint256",
          "name": "videoRatePerMinute",
          "type": "uint256"
        },
        {
          "internalType": "bool",
          "name": "isRegistered",
          "type": "bool"
        }
      ],
      "stateMutability": "view",
      "type": "function"
    },
    {
      "inputs": [
        {
          "internalType": "address",
          "name": "_expert",
          "type": "address"
        },
        {
          "internalType": "enum Heartly.CallType",
          "name": "_callType",
          "type": "uint8"
        }
      ],
      "name": "getExpertRate",
      "outputs": [
        {
          "internalType": "uint256",
          "name": "",
          "type": "uint256"
        }
      ],
      "stateMutability": "view",
      "type": "function"
    },
    {
      "inputs": [
        {
          "internalType": "address",
          "name": "_user",
          "type": "address"
        }
      ],
      "name": "getUserCalls",
      "outputs": [
        {
          "internalType": "bytes32[]",
          "name": "",
          "type": "bytes32[]"
        }
      ],
      "stateMutability": "view",
      "type": "function"
    },
    {
      "inputs": [],
      "name": "owner",
      "outputs": [
        {
          "internalType": "address",
          "name": "",
          "type": "address"
        }
      ],
      "stateMutability": "view",
      "type": "function"
    },
    {
      "inputs": [
        {
          "internalType": "uint256",
          "name": "_amount",
          "type": "uint256"
        }
      ],
      "name": "platformFeeWithdrawl",
      "outputs": [],
      "stateMutability": "nonpayable",
      "type": "function"
    },
    {
      "inputs": [
        {
          "internalType": "string",
          "name": "_name",
          "type": "string"
        },
        {
          "internalType": "string",
          "name": "_expertise",
          "type": "string"
        },
        {
          "internalType": "uint256",
          "name": "_voiceRatePerMinute",
          "type": "uint256"
        },
        {
          "internalType": "uint256",
          "name": "_videoRatePerMinute",
          "type": "uint256"
        },
        {
          "internalType": "string",
          "name": "_cid",
          "type": "string"
        }
      ],
      "name": "registerExpert",
      "outputs": [],
      "stateMutability": "nonpayable",
      "type": "function"
    },
    {
      "inputs": [],
      "name": "renounceOwnership",
      "outputs": [],
      "stateMutability": "nonpayable",
      "type": "function"
    },
    {
      "inputs": [
        {
          "internalType": "address",
          "name": "_expert",
          "type": "address"
        },
        {
          "internalType": "enum Heartly.CallType",
          "name": "_callType",
          "type": "uint8"
        }
      ],
      "name": "scheduleCall",
      "outputs": [
        {
          "internalType": "bytes32",
          "name": "",
          "type": "bytes32"
        }
      ],
      "stateMutability": "nonpayable",
      "type": "function"
    },
    {
      "inputs": [
        {
          "internalType": "bytes32",
          "name": "_callId",
          "type": "bytes32"
        }
      ],
      "name": "startCall",
      "outputs": [],
      "stateMutability": "nonpayable",
      "type": "function"
    },
    {
      "inputs": [
        {
          "internalType": "address",
          "name": "newOwner",
          "type": "address"
        }
      ],
      "name": "transferOwnership",
      "outputs": [],
      "stateMutability": "nonpayable",
      "type": "function"
    },
    {
      "inputs": [
        {
          "internalType": "bool",
          "name": "isVoice",
          "type": "bool"
        },
        {
          "internalType": "uint256",
          "name": "updatedRate",
          "type": "uint256"
        }
      ],
      "name": "updateCallRates",
      "outputs": [],
      "stateMutability": "nonpayable",
      "type": "function"
    },
    {
      "inputs": [],
      "name": "usdc",
      "outputs": [
        {
          "internalType": "contract IERC20",
          "name": "",
          "type": "address"
        }
      ],
      "stateMutability": "view",
      "type": "function"
    },
    {
      "inputs": [
        {
          "internalType": "address",
          "name": "",
          "type": "address"
        }
      ],
      "name": "userBalances",
      "outputs": [
        {
          "internalType": "uint256",
          "name": "",
          "type": "uint256"
        }
      ],
      "stateMutability": "view",
      "type": "function"
    },
    {
      "inputs": [
        {
          "internalType": "address",
          "name": "",
          "type": "address"
        },
        {
          "internalType": "uint256",
          "name": "",
          "type": "uint256"
        }
      ],
      "name": "userCalls",
      "outputs": [
        {
          "internalType": "bytes32",
          "name": "",
          "type": "bytes32"
        }
      ],
      "stateMutability": "view",
      "type": "function"
    },
    {
      "inputs": [
        {
          "internalType": "uint256",
          "name": "_amount",
          "type": "uint256"
        }
      ],
      "name": "withdrawBalance",
      "outputs": [],
      "stateMutability": "nonpayable",
      "type": "function"
    }
  ],
  "bytecode": "0x6080604052600060035534801561001557600080fd5b50604051612b9d380380612b9d83398101604081905261003491610137565b6001600055338061006057604051631e4fbdf760e01b8152600060048201526024015b60405180910390fd5b610069816100e5565b506001600160a01b0381166100c05760405162461bcd60e51b815260206004820152601460248201527f496e76616c6964205553444320616464726573730000000000000000000000006044820152606401610057565b600280546001600160a01b0319166001600160a01b0392909216919091179055610167565b600180546001600160a01b038381166001600160a01b0319831681179093556040519116919082907f8be0079c531659141344cd1fd0a4f28419497f9722a3daafe3b4186f6b6457e090600090a35050565b60006020828403121561014957600080fd5b81516001600160a01b038116811461016057600080fd5b9392505050565b612a27806101766000396000f3fe608060405234801561001057600080fd5b506004361061018d5760003560e01c80636e1ff4a0116100de578063b683a95811610097578063da76d5cd11610071578063da76d5cd14610439578063f24983981461044c578063f2fde38b1461045f578063fdf1797b1461047257600080fd5b8063b683a95814610384578063b6b55f2514610397578063cff10265146103aa57600080fd5b80636e1ff4a01461031f578063715018a614610332578063778014031461033a5780638da5cb5b1461034d5780638f3524e21461035e578063974c0f561461037157600080fd5b80632b703c501161014b57806345d701941161012557806345d70194146102bd57806359b5d4a1146102d057806360b831e5146102e35780636c24a76f146102f657600080fd5b80632b703c501461024d57806330d508521461026d5780633e413bee1461029257600080fd5b8062f33387146101925780630125c773146101b85780630dd12f93146101cd57806312572f5a146101e0578063197148061461020757806326224c641461022d575b600080fd5b6101a56101a036600461228b565b610485565b6040519081526020015b60405180910390f35b6101cb6101c63660046122b5565b6104b6565b005b6101a56101db3660046122ce565b6105ec565b6101f36101ee366004612309565b61083f565b6040516101af989796959493929190612371565b61021a6102153660046122b5565b610a25565b6040516101af9796959493929190612420565b6101a561023b366004612309565b60056020526000908152604090205481565b61026061025b366004612309565b610b95565b6040516101af9190612470565b61028061027b366004612309565b610c01565b6040516101af969594939291906124b3565b6002546102a5906001600160a01b031681565b6040516001600160a01b0390911681526020016101af565b6101a56102cb3660046122ce565b610e58565b6101cb6102de3660046125a5565b611229565b6101cb6102f13660046122b5565b61145b565b6101a5610304366004612309565b6001600160a01b031660009081526005602052604090205490565b6101cb61032d36600461265b565b61158d565b6101cb61166b565b6101cb610348366004612679565b61167f565b6001546001600160a01b03166102a5565b61026061036c366004612309565b6119bf565b6101cb61037f3660046122b5565b611a29565b6101cb6103923660046122b5565b611ac8565b6101cb6103a53660046122b5565b611caa565b6104226103b83660046122b5565b600660208190526000918252604090912080546001820154600283015460038401546004850154600586015496860154600787015460089097015495976001600160a01b03958616979585169660ff600160a01b8704811697600160a81b9097041695919291908b565b6040516101af9b9a999897969594939291906126b2565b6101cb6104473660046122b5565b611e16565b6101cb61045a3660046122b5565b611f7d565b6101cb61046d366004612309565b61216f565b6101a561048036600461228b565b6121aa565b600860205281600052604060002081815481106104a157600080fd5b90600052602060002001600091509150505481565b6104be6121c6565b6104c66121f0565b8060035410156105145760405162461bcd60e51b8152602060048201526014602482015273496e73756666696369656e742042616c616e636560601b60448201526064015b60405180910390fd5b80600360008282546105269190612738565b909155505060025460405163a9059cbb60e01b8152336004820152602481018390526001600160a01b039091169063a9059cbb906044016020604051808303816000875af115801561057c573d6000803e3d6000fd5b505050506040513d601f19601f820116820180604052508101906105a0919061274b565b6105a957600080fd5b60405181815233907f86cf551e148a34bdde98a662e7ce59210dd22f609b0b05a783005460328d077b906020015b60405180910390a26105e96001600055565b50565b6001600160a01b03808316600090815260046020908152604080832081516101008101909252805490941681526001840180549394859492939092908401919061063590612768565b80601f016020809104026020016040519081016040528092919081815260200182805461066190612768565b80156106ae5780601f10610683576101008083540402835291602001916106ae565b820191906000526020600020905b81548152906001019060200180831161069157829003601f168201915b505050505081526020016002820180546106c790612768565b80601f01602080910402602001604051908101604052809291908181526020018280546106f390612768565b80156107405780601f1061071557610100808354040283529160200191610740565b820191906000526020600020905b81548152906001019060200180831161072357829003601f168201915b5050505050815260200160038201548152602001600482015481526020016005820154815260200160068201805461077790612768565b80601f01602080910402602001604051908101604052809291908181526020018280546107a390612768565b80156107f05780601f106107c5576101008083540402835291602001916107f0565b820191906000526020600020905b8154815290600101906020018083116107d357829003601f168201915b50505091835250506007919091015460ff16151560209091015290506000836001811115610820576108206123e6565b1461082f578060a00151610835565b80608001515b9150505b92915050565b600460205260009081526040902080546001820180546001600160a01b03909216929161086b90612768565b80601f016020809104026020016040519081016040528092919081815260200182805461089790612768565b80156108e45780601f106108b9576101008083540402835291602001916108e4565b820191906000526020600020905b8154815290600101906020018083116108c757829003601f168201915b5050505050908060020180546108f990612768565b80601f016020809104026020016040519081016040528092919081815260200182805461092590612768565b80156109725780601f1061094757610100808354040283529160200191610972565b820191906000526020600020905b81548152906001019060200180831161095557829003601f168201915b50505050509080600301549080600401549080600501549080600601805461099990612768565b80601f01602080910402602001604051908101604052809291908181526020018280546109c590612768565b8015610a125780601f106109e757610100808354040283529160200191610a12565b820191906000526020600020905b8154815290600101906020018083116109f557829003601f168201915b5050506007909301549192505060ff1688565b6000818152600660209081526040808320815161016081018352815481526001808301546001600160a01b03908116958301959095526002830154948516938201939093528493849384938493849384938493916060840191600160a01b90910460ff1690811115610a9957610a996123e6565b6001811115610aaa57610aaa6123e6565b81526020016002820160159054906101000a900460ff166004811115610ad257610ad26123e6565b6004811115610ae357610ae36123e6565b81526020016003820154815260200160048201548152602001600582015481526020016006820154815260200160078201548152602001600882015481525050905060006001600160a01b031681602001516001600160a01b031603610b5b5760405162461bcd60e51b815260040161050b906127a2565b602081015160408201516060830151608084015160a085015160c086015160e090960151949e939d50919b50995097509195509350915050565b6001600160a01b038116600090815260076020908152604091829020805483518184028101840190945280845260609392830182828015610bf557602002820191906000526020600020905b815481526020019060010190808311610be1575b50505050509050919050565b6001600160a01b03808216600090815260046020908152604080832081516101008101909252805490941681526001840180546060958695948594859485948594929384019190610c5190612768565b80601f0160208091040260200160405190810160405280929190818152602001828054610c7d90612768565b8015610cca5780601f10610c9f57610100808354040283529160200191610cca565b820191906000526020600020905b815481529060010190602001808311610cad57829003601f168201915b50505050508152602001600282018054610ce390612768565b80601f0160208091040260200160405190810160405280929190818152602001828054610d0f90612768565b8015610d5c5780601f10610d3157610100808354040283529160200191610d5c565b820191906000526020600020905b815481529060010190602001808311610d3f57829003601f168201915b50505050508152602001600382015481526020016004820154815260200160058201548152602001600682018054610d9390612768565b80601f0160208091040260200160405190810160405280929190818152602001828054610dbf90612768565b8015610e0c5780601f10610de157610100808354040283529160200191610e0c565b820191906000526020600020905b815481529060010190602001808311610def57829003601f168201915b50505091835250506007919091015460ff16151560209182015281015160408201516060830151608084015160a085015160e090950151939d929c50909a509850919650945092505050565b6000610e626121c6565b6001600160a01b03831660009081526004602052604090206007015460ff16610ec55760405162461bcd60e51b8152602060048201526015602482015274115e1c195c9d081b9bdd081c9959da5cdd195c9959605a1b604482015260640161050b565b336001600160a01b03841603610f285760405162461bcd60e51b815260206004820152602260248201527f43616e6e6f74207363686564756c652063616c6c207769746820796f75727365604482015261363360f11b606482015260840161050b565b6000610f3484846105ec565b9050610f418160026127cf565b336000908152600560205260409020541015610fb75760405162461bcd60e51b815260206004820152602f60248201527f496e73756666696369656e742062616c616e63652e20506c656173652064657060448201526e37b9b4ba1036b7b932902aa9a2219760891b606482015260840161050b565b33600081815260056020526040812054916110209087426040516bffffffffffffffffffffffff19606085811b8216602084015284901b166034820152604881018290526000906068016040516020818303038152906040528051906020012090509392505050565b90506000604051806101600160405280838152602001336001600160a01b03168152602001886001600160a01b03168152602001876001811115611066576110666123e6565b815260200160008152602080820186905260006040808401829052606080850183905242608086015260a0850183905260c090940182905286825260068352908190208451815591840151600180840180546001600160a01b03199081166001600160a01b039485161790915592860151600285018054948516919093169081178355948601519596508695939491926001600160a81b03191690911790600160a01b90849081111561111b5761111b6123e6565b0217905550608082015160028201805460ff60a81b1916600160a81b836004811115611149576111496123e6565b021790555060a0820151600382015560c0820151600482015560e0820151600582015561010082015160068201556101208201516007808301919091556101409092015160089182015533600081815260209384526040808220805460018181018355918452868420018890556001600160a01b038d1680845294865281832080549182018155835294909120909301859055915190919084907fd1fede26c6b4cac470a2ce87da5e7d871bfe26854bc5a3de7adc11b79074745290611212908b9089906127e6565b60405180910390a450925050506108396001600055565b3360009081526004602052604090206007015460ff161561128c5760405162461bcd60e51b815260206004820152601960248201527f45787065727420616c7265616479207265676973746572656400000000000000604482015260640161050b565b60008311801561129c5750600082115b6112e85760405162461bcd60e51b815260206004820152601c60248201527f5261746573206d7573742062652067726561746572207468616e203000000000604482015260640161050b565b60008551116113305760405162461bcd60e51b81526020600482015260146024820152734e616d652063616e6e6f7420626520656d70747960601b604482015260640161050b565b60408051610100810182523380825260208083018981528385018990526000606085018190526080850189905260a0850188905260c08501879052600160e086018190529381526004909252939020825181546001600160a01b0319166001600160a01b039091161781559251919291908201906113ae908261284f565b50604082015160028201906113c3908261284f565b50606082015160038201556080820151600482015560a0820151600582015560c082015160068201906113f6908261284f565b5060e091909101516007909101805460ff191691151591909117905560405133907f5bdb26bd1bbedca9e19370db052b173db81b71d3e9c5a8e435fb4cac0bb84abd9061144c9088908790879087908b9061290e565b60405180910390a25050505050565b6114636121c6565b600081815260066020526040902060018101546001600160a01b0316331480611498575060028101546001600160a01b031633145b6114d35760405162461bcd60e51b815260206004820152600c60248201526b155b985d5d1a1bdc9a5e995960a21b604482015260640161050b565b60006002820154600160a81b900460ff1660048111156114f5576114f56123e6565b146115425760405162461bcd60e51b815260206004820152601860248201527f43616c6c2063616e6e6f742062652063616e63656c6c65640000000000000000604482015260640161050b565b60028101805460ff60a81b1916600360a81b17905560405182907fab2af3494bc00bd4aa34e08bd246e5c402d3ee4856c19f5461ce47a6d57423e190600090a2506105e96001600055565b3360009081526004602052604090206007015460ff166116005760405162461bcd60e51b815260206004820152602860248201527f4f6e6c79207265676973746572656420657870657274732063616e2075706461604482015267746520726174657360c01b606482015260840161050b565b33600090815260046020526040902082156116215760048101829055611629565b600581018290555b6040805184151581526020810184905233917f4749ef2c09ba21a4d046e2dd30cc8572362e315335931a7d9a4fec793d922b80910160405180910390a2505050565b6116736121f0565b61167d600061221d565b565b6116876121c6565b600083815260066020526040902060018101546001600160a01b03166116bf5760405162461bcd60e51b815260040161050b906127a2565b60018101546001600160a01b03163314806116e6575060028101546001600160a01b031633145b6117215760405162461bcd60e51b815260206004820152600c60248201526b155b985d5d1a1bdc9a5e995960a21b604482015260640161050b565b60016002820154600160a81b900460ff166004811115611743576117436123e6565b148061176e575060046002820154600160a81b900460ff16600481111561176c5761176c6123e6565b145b61178a5760405162461bcd60e51b815260040161050b9061295f565b60016002820154600160a81b900460ff1660048111156117ac576117ac6123e6565b036117b8574260058201555b6000603c826004015483600501546117d09190612738565b6117db90603b6129a3565b6117e591906129b6565b600283015490915060009061180e906001600160a01b03811690600160a01b900460ff166105ec565b9050600061181c83836127cf565b90508360030154811115611831575060038301545b600060646118408360146127cf565b61184a91906129b6565b9050806003600082825461185e91906129a3565b909155505060028501546001600160a01b031660009081526004602052604090206118898284612738565b81600301600082825461189c91906129a3565b909155505060038601546000906118b4908590612738565b905080156118ee5760018701546001600160a01b0316600090815260056020526040812080548392906118e89084906129a3565b90915550505b60028701805460ff60a81b1916600160a91b17905560058611156119185760078701899055611920565b600060078801555b871561193e57600887018054906000611938836129d8565b91905055505b600287015460018801546007890154604080518a815260208101899052908101919091528a151560608201526001600160a01b0392831692909116908c907f7a679f08d9a0e560d90a3cac3e7a7d58fb8e2edff557a532f807332db5650d999060800160405180910390a4505050505050506119ba6001600055565b505050565b6001600160a01b038116600090815260086020908152604091829020805483518184028101840190945280845260609392830182828015610bf55760200282019190600052602060002090815481526020019060010190808311610be15750505050509050919050565b611a316121f0565b600081815260066020526040902060016002820154600160a81b900460ff166004811115611a6157611a616123e6565b14611a7e5760405162461bcd60e51b815260040161050b9061295f565b60028101805460ff60a81b1916600160aa1b17905542600582015560405182907f7cd1c2e10154e44d4bc2813a177cff26d1d35bbe8692db46c30ce0ebfca5400690600090a25050565b611ad06121c6565b3360009081526004602052604090206007015460ff16611b3c5760405162461bcd60e51b815260206004820152602160248201527f43616c6c6572206973206e6f74206120726567697374657265642065787065726044820152601d60fa1b606482015260840161050b565b33600090815260046020526040902060030154811115611b9e5760405162461bcd60e51b815260206004820152601e60248201527f4e6f7420656e6f7567682062616c616e636520746f2077697468647261770000604482015260640161050b565b3360009081526004602052604081206003018054839290611bc0908490612738565b909155505060025460405163a9059cbb60e01b8152336004820152602481018390526001600160a01b039091169063a9059cbb906044016020604051808303816000875af1158015611c16573d6000803e3d6000fd5b505050506040513d601f19601f82011682018060405250810190611c3a919061274b565b611c785760405162461bcd60e51b815260206004820152600f60248201526e151c985b9cd9995c8819985a5b1959608a1b604482015260640161050b565b60405181815233907f3399562e57f327238c420d00bb3342bf7798d2be4d11ee3e43d0fcda40758397906020016105d7565b611cb26121c6565b60008111611d025760405162461bcd60e51b815260206004820152601d60248201527f416d6f756e74206d7573742062652067726561746572207468616e2030000000604482015260640161050b565b6002546040516323b872dd60e01b8152336004820152306024820152604481018390526001600160a01b03909116906323b872dd906064016020604051808303816000875af1158015611d59573d6000803e3d6000fd5b505050506040513d601f19601f82011682018060405250810190611d7d919061274b565b611dc05760405162461bcd60e51b81526020600482015260146024820152731554d110c81d1c985b9cd9995c8819985a5b195960621b604482015260640161050b565b3360009081526005602052604081208054839290611ddf9084906129a3565b909155505060405181815233907f2da466a7b24304f47e87fa2e1e5a81b9831ce54fec19055ce277ca2f39ba42c4906020016105d7565b611e1e6121c6565b33600090815260056020526040902054811115611e745760405162461bcd60e51b8152602060048201526014602482015273496e73756666696369656e742062616c616e636560601b604482015260640161050b565b3360009081526005602052604081208054839290611e93908490612738565b909155505060025460405163a9059cbb60e01b8152336004820152602481018390526001600160a01b039091169063a9059cbb906044016020604051808303816000875af1158015611ee9573d6000803e3d6000fd5b505050506040513d601f19601f82011682018060405250810190611f0d919061274b565b611f4b5760405162461bcd60e51b815260206004820152600f60248201526e151c985b9cd9995c8819985a5b1959608a1b604482015260640161050b565b60405181815233907fddc398b321237a8d40ac914388309c2f52a08c134e4dc4ce61e32f57cb7d80f1906020016105d7565b600081815260066020526040902060018101546001600160a01b0316611fb55760405162461bcd60e51b815260040161050b906127a2565b60028101546001600160a01b031633146120115760405162461bcd60e51b815260206004820152601960248201527f4f6e6c79204578706572742063616e2063616c6c207468697300000000000000604482015260640161050b565b60006002820154600160a81b900460ff166004811115612033576120336123e6565b1461208a5760405162461bcd60e51b815260206004820152602160248201527f43616c6c20616c72656164792073746172746564206f7220636f6d706c6574656044820152601960fa1b606482015260840161050b565b60b4816006015461209b91906129a3565b4211156120ea5760405162461bcd60e51b815260206004820152601960248201527f43616c6c2073746172742077696e646f77206578706972656400000000000000604482015260640161050b565b426004820190815560028201805460ff60a81b1916600160a81b1781556001830180546001600160a01b03908116600090815260056020908152604080832092909255935492549454905190815291811693169185917f2863d8b994bfbf733e507cb523d7ab2e4190ab63c526f9cfa634bfb43c5d131a910160405180910390a45050565b6121776121f0565b6001600160a01b0381166121a157604051631e4fbdf760e01b81526000600482015260240161050b565b6105e98161221d565b600760205281600052604060002081815481106104a157600080fd5b6002600054036121e957604051633ee5aeb560e01b815260040160405180910390fd5b6002600055565b6001546001600160a01b0316331461167d5760405163118cdaa760e01b815233600482015260240161050b565b600180546001600160a01b038381166001600160a01b0319831681179093556040519116919082907f8be0079c531659141344cd1fd0a4f28419497f9722a3daafe3b4186f6b6457e090600090a35050565b80356001600160a01b038116811461228657600080fd5b919050565b6000806040838503121561229e57600080fd5b6122a78361226f565b946020939093013593505050565b6000602082840312156122c757600080fd5b5035919050565b600080604083850312156122e157600080fd5b6122ea8361226f565b91506020830135600281106122fe57600080fd5b809150509250929050565b60006020828403121561231b57600080fd5b6123248261226f565b9392505050565b6000815180845260005b8181101561235157602081850181015186830182015201612335565b506000602082860101526020601f19601f83011685010191505092915050565b6001600160a01b0389168152610100602082018190526000906123969083018a61232b565b82810360408401526123a8818a61232b565b90508760608401528660808401528560a084015282810360c08401526123ce818661232b565b91505082151560e08301529998505050505050505050565b634e487b7160e01b600052602160045260246000fd5b6002811061240c5761240c6123e6565b9052565b6005811061240c5761240c6123e6565b6001600160a01b0388811682528716602082015260e0810161244560408301886123fc565b6124526060830187612410565b8460808301528360a08301528260c083015298975050505050505050565b602080825282518282018190526000918401906040840190835b818110156124a857835183526020938401939092019160010161248a565b509095945050505050565b60c0815260006124c660c083018961232b565b82810360208401526124d8818961232b565b91505085604083015284606083015283608083015282151560a0830152979650505050505050565b634e487b7160e01b600052604160045260246000fd5b600082601f83011261252757600080fd5b813567ffffffffffffffff81111561254157612541612500565b604051601f8201601f19908116603f0116810167ffffffffffffffff8111828210171561257057612570612500565b60405281815283820160200185101561258857600080fd5b816020850160208301376000918101602001919091529392505050565b600080600080600060a086880312156125bd57600080fd5b853567ffffffffffffffff8111156125d457600080fd5b6125e088828901612516565b955050602086013567ffffffffffffffff8111156125fd57600080fd5b61260988828901612516565b9450506040860135925060608601359150608086013567ffffffffffffffff81111561263457600080fd5b61264088828901612516565b9150509295509295909350565b80151581146105e957600080fd5b6000806040838503121561266e57600080fd5b82356122a78161264d565b60008060006060848603121561268e57600080fd5b833592506020840135915060408401356126a78161264d565b809150509250925092565b8b81526001600160a01b038b811660208301528a16604082015261016081016126de606083018b6123fc565b6126eb608083018a612410565b8760a08301528660c08301528560e08301528461010083015283610120830152826101408301529c9b505050505050505050505050565b634e487b7160e01b600052601160045260246000fd5b8181038181111561083957610839612722565b60006020828403121561275d57600080fd5b81516123248161264d565b600181811c9082168061277c57607f821691505b60208210810361279c57634e487b7160e01b600052602260045260246000fd5b50919050565b60208082526013908201527210d85b1b08191bd95cc81b9bdd08195e1a5cdd606a1b604082015260600190565b808202811582820484141761083957610839612722565b604081016127f482856123fc565b8260208301529392505050565b601f8211156119ba57806000526020600020601f840160051c810160208510156128285750805b601f840160051c820191505b818110156128485760008155600101612834565b5050505050565b815167ffffffffffffffff81111561286957612869612500565b61287d816128778454612768565b84612801565b6020601f8211600181146128b157600083156128995750848201515b600019600385901b1c1916600184901b178455612848565b600084815260208120601f198516915b828110156128e157878501518255602094850194600190920191016128c1565b50848210156128ff5786840151600019600387901b60f8161c191681555b50505050600190811b01905550565b60a08152600061292160a083018861232b565b866020840152856040840152828103606084015261293f818661232b565b90508281036080840152612953818561232b565b98975050505050505050565b60208082526024908201527f43616c6c206e6f7420616374697665206f7220616c726561647920636f6d706c604082015263195d195960e21b606082015260800190565b8082018082111561083957610839612722565b6000826129d357634e487b7160e01b600052601260045260246000fd5b500490565b6000600182016129ea576129ea612722565b506001019056fea2646970667358221220ce952e1e08adebaeae05bb9bf1d6177b267a491c78b5ee577968b7b5944a96e964736f6c634300081c0033",
  "linkReferences": {},
  "deployedLinkReferences": {}
}